{
  "_format": "hh-sol-artifact-1",
  "contractName": "NFTMarket",
  "sourceName": "contracts/NFTMarket.sol",
  "abi": [
    {
      "inputs": [],
      "stateMutability": "nonpayable",
      "type": "constructor"
    },
    {
      "inputs": [
        {
          "internalType": "address",
          "name": "sender",
          "type": "address"
        },
        {
          "internalType": "uint256",
          "name": "tokenId",
          "type": "uint256"
        },
        {
          "internalType": "address",
          "name": "owner",
          "type": "address"
        }
      ],
      "name": "ERC721IncorrectOwner",
      "type": "error"
    },
    {
      "inputs": [
        {
          "internalType": "address",
          "name": "operator",
          "type": "address"
        },
        {
          "internalType": "uint256",
          "name": "tokenId",
          "type": "uint256"
        }
      ],
      "name": "ERC721InsufficientApproval",
      "type": "error"
    },
    {
      "inputs": [
        {
          "internalType": "address",
          "name": "approver",
          "type": "address"
        }
      ],
      "name": "ERC721InvalidApprover",
      "type": "error"
    },
    {
      "inputs": [
        {
          "internalType": "address",
          "name": "operator",
          "type": "address"
        }
      ],
      "name": "ERC721InvalidOperator",
      "type": "error"
    },
    {
      "inputs": [
        {
          "internalType": "address",
          "name": "owner",
          "type": "address"
        }
      ],
      "name": "ERC721InvalidOwner",
      "type": "error"
    },
    {
      "inputs": [
        {
          "internalType": "address",
          "name": "receiver",
          "type": "address"
        }
      ],
      "name": "ERC721InvalidReceiver",
      "type": "error"
    },
    {
      "inputs": [
        {
          "internalType": "address",
          "name": "sender",
          "type": "address"
        }
      ],
      "name": "ERC721InvalidSender",
      "type": "error"
    },
    {
      "inputs": [
        {
          "internalType": "uint256",
          "name": "tokenId",
          "type": "uint256"
        }
      ],
      "name": "ERC721NonexistentToken",
      "type": "error"
    },
    {
      "anonymous": false,
      "inputs": [
        {
          "indexed": true,
          "internalType": "address",
          "name": "owner",
          "type": "address"
        },
        {
          "indexed": true,
          "internalType": "address",
          "name": "approved",
          "type": "address"
        },
        {
          "indexed": true,
          "internalType": "uint256",
          "name": "tokenId",
          "type": "uint256"
        }
      ],
      "name": "Approval",
      "type": "event"
    },
    {
      "anonymous": false,
      "inputs": [
        {
          "indexed": true,
          "internalType": "address",
          "name": "owner",
          "type": "address"
        },
        {
          "indexed": true,
          "internalType": "address",
          "name": "operator",
          "type": "address"
        },
        {
          "indexed": false,
          "internalType": "bool",
          "name": "approved",
          "type": "bool"
        }
      ],
      "name": "ApprovalForAll",
      "type": "event"
    },
    {
      "anonymous": false,
      "inputs": [
        {
          "indexed": false,
          "internalType": "uint256",
          "name": "_fromTokenId",
          "type": "uint256"
        },
        {
          "indexed": false,
          "internalType": "uint256",
          "name": "_toTokenId",
          "type": "uint256"
        }
      ],
      "name": "BatchMetadataUpdate",
      "type": "event"
    },
    {
      "anonymous": false,
      "inputs": [
        {
          "indexed": false,
          "internalType": "uint256",
          "name": "_tokenId",
          "type": "uint256"
        }
      ],
      "name": "MetadataUpdate",
      "type": "event"
    },
    {
      "anonymous": false,
      "inputs": [
        {
          "indexed": false,
          "internalType": "uint256",
          "name": "tokenID",
          "type": "uint256"
        },
        {
          "indexed": false,
          "internalType": "address",
          "name": "from",
          "type": "address"
        },
        {
          "indexed": false,
          "internalType": "address",
          "name": "to",
          "type": "address"
        },
        {
          "indexed": false,
          "internalType": "string",
          "name": "tokenURI",
          "type": "string"
        },
        {
          "indexed": false,
          "internalType": "uint256",
          "name": "price",
          "type": "uint256"
        }
      ],
      "name": "NFTTransfer",
      "type": "event"
    },
    {
      "anonymous": false,
      "inputs": [
        {
          "indexed": true,
          "internalType": "address",
          "name": "from",
          "type": "address"
        },
        {
          "indexed": true,
          "internalType": "address",
          "name": "to",
          "type": "address"
        },
        {
          "indexed": true,
          "internalType": "uint256",
          "name": "tokenId",
          "type": "uint256"
        }
      ],
      "name": "Transfer",
      "type": "event"
    },
    {
      "inputs": [
        {
          "internalType": "address",
          "name": "to",
          "type": "address"
        },
        {
          "internalType": "uint256",
          "name": "tokenId",
          "type": "uint256"
        }
      ],
      "name": "approve",
      "outputs": [],
      "stateMutability": "nonpayable",
      "type": "function"
    },
    {
      "inputs": [
        {
          "internalType": "address",
          "name": "owner",
          "type": "address"
        }
      ],
      "name": "balanceOf",
      "outputs": [
        {
          "internalType": "uint256",
          "name": "",
          "type": "uint256"
        }
      ],
      "stateMutability": "view",
      "type": "function"
    },
    {
      "inputs": [
        {
          "internalType": "uint256",
          "name": "tokenID",
          "type": "uint256"
        }
      ],
      "name": "cancelListing",
      "outputs": [],
      "stateMutability": "nonpayable",
      "type": "function"
    },
    {
      "inputs": [
        {
          "internalType": "string",
          "name": "uri",
          "type": "string"
        }
      ],
      "name": "createNFT",
      "outputs": [],
      "stateMutability": "nonpayable",
      "type": "function"
    },
    {
      "inputs": [
        {
          "internalType": "uint256",
          "name": "tokenId",
          "type": "uint256"
        }
      ],
      "name": "getApproved",
      "outputs": [
        {
          "internalType": "address",
          "name": "",
          "type": "address"
        }
      ],
      "stateMutability": "view",
      "type": "function"
    },
    {
      "inputs": [
        {
          "internalType": "address",
          "name": "owner",
          "type": "address"
        },
        {
          "internalType": "address",
          "name": "operator",
          "type": "address"
        }
      ],
      "name": "isApprovedForAll",
      "outputs": [
        {
          "internalType": "bool",
          "name": "",
          "type": "bool"
        }
      ],
      "stateMutability": "view",
      "type": "function"
    },
    {
      "inputs": [
        {
          "internalType": "uint256",
          "name": "tokenID",
          "type": "uint256"
        },
        {
          "internalType": "uint256",
          "name": "price",
          "type": "uint256"
        }
      ],
      "name": "listNFT",
      "outputs": [],
      "stateMutability": "nonpayable",
      "type": "function"
    },
    {
      "inputs": [],
      "name": "name",
      "outputs": [
        {
          "internalType": "string",
          "name": "",
          "type": "string"
        }
      ],
      "stateMutability": "view",
      "type": "function"
    },
    {
      "inputs": [
        {
          "internalType": "uint256",
          "name": "tokenId",
          "type": "uint256"
        }
      ],
      "name": "ownerOf",
      "outputs": [
        {
          "internalType": "address",
          "name": "",
          "type": "address"
        }
      ],
      "stateMutability": "view",
      "type": "function"
    },
    {
      "inputs": [
        {
          "internalType": "address",
          "name": "from",
          "type": "address"
        },
        {
          "internalType": "address",
          "name": "to",
          "type": "address"
        },
        {
          "internalType": "uint256",
          "name": "tokenId",
          "type": "uint256"
        }
      ],
      "name": "safeTransferFrom",
      "outputs": [],
      "stateMutability": "nonpayable",
      "type": "function"
    },
    {
      "inputs": [
        {
          "internalType": "address",
          "name": "from",
          "type": "address"
        },
        {
          "internalType": "address",
          "name": "to",
          "type": "address"
        },
        {
          "internalType": "uint256",
          "name": "tokenId",
          "type": "uint256"
        },
        {
          "internalType": "bytes",
          "name": "data",
          "type": "bytes"
        }
      ],
      "name": "safeTransferFrom",
      "outputs": [],
      "stateMutability": "nonpayable",
      "type": "function"
    },
    {
      "inputs": [
        {
          "internalType": "address",
          "name": "operator",
          "type": "address"
        },
        {
          "internalType": "bool",
          "name": "approved",
          "type": "bool"
        }
      ],
      "name": "setApprovalForAll",
      "outputs": [],
      "stateMutability": "nonpayable",
      "type": "function"
    },
    {
      "inputs": [
        {
          "internalType": "bytes4",
          "name": "interfaceId",
          "type": "bytes4"
        }
      ],
      "name": "supportsInterface",
      "outputs": [
        {
          "internalType": "bool",
          "name": "",
          "type": "bool"
        }
      ],
      "stateMutability": "view",
      "type": "function"
    },
    {
      "inputs": [],
      "name": "symbol",
      "outputs": [
        {
          "internalType": "string",
          "name": "",
          "type": "string"
        }
      ],
      "stateMutability": "view",
      "type": "function"
    },
    {
      "inputs": [
        {
          "internalType": "uint256",
          "name": "tokenId",
          "type": "uint256"
        }
      ],
      "name": "tokenURI",
      "outputs": [
        {
          "internalType": "string",
          "name": "",
          "type": "string"
        }
      ],
      "stateMutability": "view",
      "type": "function"
    },
    {
      "inputs": [
        {
          "internalType": "address",
          "name": "from",
          "type": "address"
        },
        {
          "internalType": "address",
          "name": "to",
          "type": "address"
        },
        {
          "internalType": "uint256",
          "name": "tokenId",
          "type": "uint256"
        }
      ],
      "name": "transferFrom",
      "outputs": [],
      "stateMutability": "nonpayable",
      "type": "function"
    }
  ],
  "bytecode": "0x608060405234801561001057600080fd5b506040518060400160405280600781526020017f4d79546f6b656e000000000000000000000000000000000000000000000000008152506040518060400160405280600381526020017f4d544b0000000000000000000000000000000000000000000000000000000000815250816000908161008c91906102f4565b50806001908161009c91906102f4565b5050506103c6565b600081519050919050565b7f4e487b7100000000000000000000000000000000000000000000000000000000600052604160045260246000fd5b7f4e487b7100000000000000000000000000000000000000000000000000000000600052602260045260246000fd5b6000600282049050600182168061012557607f821691505b602082108103610138576101376100de565b5b50919050565b60008190508160005260206000209050919050565b60006020601f8301049050919050565b600082821b905092915050565b6000600883026101a07fffffffffffffffffffffffffffffffffffffffffffffffffffffffffffffffff82610163565b6101aa8683610163565b95508019841693508086168417925050509392505050565b6000819050919050565b6000819050919050565b60006101f16101ec6101e7846101c2565b6101cc565b6101c2565b9050919050565b6000819050919050565b61020b836101d6565b61021f610217826101f8565b848454610170565b825550505050565b600090565b610234610227565b61023f818484610202565b505050565b5b818110156102635761025860008261022c565b600181019050610245565b5050565b601f8211156102a8576102798161013e565b61028284610153565b81016020851015610291578190505b6102a561029d85610153565b830182610244565b50505b505050565b600082821c905092915050565b60006102cb600019846008026102ad565b1980831691505092915050565b60006102e483836102ba565b9150826002028217905092915050565b6102fd826100a4565b67ffffffffffffffff811115610316576103156100af565b5b610320825461010d565b61032b828285610267565b600060209050601f83116001811461035e576000841561034c578287015190505b61035685826102d8565b8655506103be565b601f19841661036c8661013e565b60005b828110156103945784890151825560018201915060208501945060208101905061036f565b868310156103b157848901516103ad601f8916826102ba565b8355505b6001600288020188555050505b505050505050565b612b82806103d56000396000f3fe608060405234801561001057600080fd5b50600436106101005760003560e01c806370a0823111610097578063b88d4fde11610066578063b88d4fde146102a9578063c87b56dd146102c5578063da2ed03e146102f5578063e985e9c51461031157610100565b806370a082311461022357806394383f141461025357806395d89b411461026f578063a22cb4651461028d57610100565b806323b872dd116100d357806323b872dd1461019f578063305a67a8146101bb57806342842e0e146101d75780636352211e146101f357610100565b806301ffc9a71461010557806306fdde0314610135578063081812fc14610153578063095ea7b314610183575b600080fd5b61011f600480360381019061011a9190611c7b565b610341565b60405161012c9190611cc3565b60405180910390f35b61013d610353565b60405161014a9190611d6e565b60405180910390f35b61016d60048036038101906101689190611dc6565b6103e5565b60405161017a9190611e34565b60405180910390f35b61019d60048036038101906101989190611e7b565b610401565b005b6101b960048036038101906101b49190611ebb565b610417565b005b6101d560048036038101906101d09190611dc6565b610519565b005b6101f160048036038101906101ec9190611ebb565b61070e565b005b61020d60048036038101906102089190611dc6565b61072e565b60405161021a9190611e34565b60405180910390f35b61023d60048036038101906102389190611f0e565b610740565b60405161024a9190611f4a565b60405180910390f35b61026d60048036038101906102689190611f65565b6107fa565b005b61027761091b565b6040516102849190611d6e565b60405180910390f35b6102a760048036038101906102a29190611fd1565b6109ad565b005b6102c360048036038101906102be9190612146565b6109c3565b005b6102df60048036038101906102da9190611dc6565b6109e8565b6040516102ec9190611d6e565b60405180910390f35b61030f600480360381019061030a919061226a565b6109fa565b005b61032b600480360381019061032691906122b3565b610a6e565b6040516103389190611cc3565b60405180910390f35b600061034c82610b02565b9050919050565b60606000805461036290612322565b80601f016020809104026020016040519081016040528092919081815260200182805461038e90612322565b80156103db5780601f106103b0576101008083540402835291602001916103db565b820191906000526020600020905b8154815290600101906020018083116103be57829003601f168201915b5050505050905090565b60006103f082610b63565b506103fa82610beb565b9050919050565b610413828261040e610c28565b610c30565b5050565b600073ffffffffffffffffffffffffffffffffffffffff168273ffffffffffffffffffffffffffffffffffffffff16036104895760006040517f64a0ae920000000000000000000000000000000000000000000000000000000081526004016104809190611e34565b60405180910390fd5b600061049d8383610498610c28565b610c42565b90508373ffffffffffffffffffffffffffffffffffffffff168173ffffffffffffffffffffffffffffffffffffffff1614610513578382826040517f64283d7b00000000000000000000000000000000000000000000000000000000815260040161050a93929190612353565b60405180910390fd5b50505050565b600060086000838152602001908152602001600020604051806040016040529081600082015481526020016001820160009054906101000a900473ffffffffffffffffffffffffffffffffffffffff1673ffffffffffffffffffffffffffffffffffffffff1673ffffffffffffffffffffffffffffffffffffffff1681525050905060008160000151116105e2576040517f08c379a00000000000000000000000000000000000000000000000000000000081526004016105d9906123fc565b60405180910390fd5b3373ffffffffffffffffffffffffffffffffffffffff16816020015173ffffffffffffffffffffffffffffffffffffffff1614610654576040517f08c379a000000000000000000000000000000000000000000000000000000000815260040161064b90612468565b60405180910390fd5b3073ffffffffffffffffffffffffffffffffffffffff166323b872dd3033856040518463ffffffff1660e01b815260040161069193929190612488565b600060405180830381600087803b1580156106ab57600080fd5b505af11580156106bf573d6000803e3d6000fd5b505050506106cc82610e5c565b7f705332a8918666802fc1504f63ff1f002a5f6cedd30d59ad7ae0b5281aeb8dca8230336000604051610702949392919061252a565b60405180910390a15050565b610729838383604051806020016040528060008152506109c3565b505050565b600061073982610b63565b9050919050565b60008073ffffffffffffffffffffffffffffffffffffffff168273ffffffffffffffffffffffffffffffffffffffff16036107b35760006040517f89c62b640000000000000000000000000000000000000000000000000000000081526004016107aa9190611e34565b60405180910390fd5b600360008373ffffffffffffffffffffffffffffffffffffffff1673ffffffffffffffffffffffffffffffffffffffff168152602001908152602001600020549050919050565b6000811161083d576040517f08c379a0000000000000000000000000000000000000000000000000000000008152600401610834906125f4565b60405180910390fd5b610848333084610417565b60405180604001604052808281526020013373ffffffffffffffffffffffffffffffffffffffff16815250600860008481526020019081526020016000206000820151816000015560208201518160010160006101000a81548173ffffffffffffffffffffffffffffffffffffffff021916908373ffffffffffffffffffffffffffffffffffffffff1602179055509050507f705332a8918666802fc1504f63ff1f002a5f6cedd30d59ad7ae0b5281aeb8dca8233308460405161090f9493929190612614565b60405180910390a15050565b60606001805461092a90612322565b80601f016020809104026020016040519081016040528092919081815260200182805461095690612322565b80156109a35780601f10610978576101008083540402835291602001916109a3565b820191906000526020600020905b81548152906001019060200180831161098657829003601f168201915b5050505050905090565b6109bf6109b8610c28565b8383610ed1565b5050565b6109ce848484610417565b6109e26109d9610c28565b85858585611040565b50505050565b60606109f3826111f1565b9050919050565b600060076000815480929190610a0f9061269b565b919050559050610a1f3382611304565b610a298183611322565b7f705332a8918666802fc1504f63ff1f002a5f6cedd30d59ad7ae0b5281aeb8dca81600033856000604051610a629594939291906126e3565b60405180910390a15050565b6000600560008473ffffffffffffffffffffffffffffffffffffffff1673ffffffffffffffffffffffffffffffffffffffff16815260200190815260200160002060008373ffffffffffffffffffffffffffffffffffffffff1673ffffffffffffffffffffffffffffffffffffffff16815260200190815260200160002060009054906101000a900460ff16905092915050565b6000634906490660e01b7bffffffffffffffffffffffffffffffffffffffffffffffffffffffff1916827bffffffffffffffffffffffffffffffffffffffffffffffffffffffff19161480610b5c5750610b5b8261137e565b5b9050919050565b600080610b6f83611460565b9050600073ffffffffffffffffffffffffffffffffffffffff168173ffffffffffffffffffffffffffffffffffffffff1603610be257826040517f7e273289000000000000000000000000000000000000000000000000000000008152600401610bd99190611f4a565b60405180910390fd5b80915050919050565b60006004600083815260200190815260200160002060009054906101000a900473ffffffffffffffffffffffffffffffffffffffff169050919050565b600033905090565b610c3d838383600161149d565b505050565b600080610c4e84611460565b9050600073ffffffffffffffffffffffffffffffffffffffff168373ffffffffffffffffffffffffffffffffffffffff1614610c9057610c8f818486611662565b5b600073ffffffffffffffffffffffffffffffffffffffff168173ffffffffffffffffffffffffffffffffffffffff1614610d2157610cd260008560008061149d565b6001600360008373ffffffffffffffffffffffffffffffffffffffff1673ffffffffffffffffffffffffffffffffffffffff168152602001908152602001600020600082825403925050819055505b600073ffffffffffffffffffffffffffffffffffffffff168573ffffffffffffffffffffffffffffffffffffffff1614610da4576001600360008773ffffffffffffffffffffffffffffffffffffffff1673ffffffffffffffffffffffffffffffffffffffff168152602001908152602001600020600082825401925050819055505b846002600086815260200190815260200160002060006101000a81548173ffffffffffffffffffffffffffffffffffffffff021916908373ffffffffffffffffffffffffffffffffffffffff160217905550838573ffffffffffffffffffffffffffffffffffffffff168273ffffffffffffffffffffffffffffffffffffffff167fddf252ad1be2c89b69c2b068fc378daa952ba7f163c4a11628f55a4df523b3ef60405160405180910390a4809150509392505050565b6000600860008381526020019081526020016000206000018190555060006008600083815260200190815260200160002060010160006101000a81548173ffffffffffffffffffffffffffffffffffffffff021916908373ffffffffffffffffffffffffffffffffffffffff16021790555050565b600073ffffffffffffffffffffffffffffffffffffffff168273ffffffffffffffffffffffffffffffffffffffff1603610f4257816040517f5b08ba18000000000000000000000000000000000000000000000000000000008152600401610f399190611e34565b60405180910390fd5b80600560008573ffffffffffffffffffffffffffffffffffffffff1673ffffffffffffffffffffffffffffffffffffffff16815260200190815260200160002060008473ffffffffffffffffffffffffffffffffffffffff1673ffffffffffffffffffffffffffffffffffffffff16815260200190815260200160002060006101000a81548160ff0219169083151502179055508173ffffffffffffffffffffffffffffffffffffffff168373ffffffffffffffffffffffffffffffffffffffff167f17307eab39ab6107e8899845ad3d59bd9653f200f220920489ca2b5937696c31836040516110339190611cc3565b60405180910390a3505050565b60008373ffffffffffffffffffffffffffffffffffffffff163b11156111ea578273ffffffffffffffffffffffffffffffffffffffff1663150b7a02868685856040518563ffffffff1660e01b815260040161109f9493929190612792565b6020604051808303816000875af19250505080156110db57506040513d601f19601f820116820180604052508101906110d891906127f3565b60015b61115f573d806000811461110b576040519150601f19603f3d011682016040523d82523d6000602084013e611110565b606091505b50600081510361115757836040517f64a0ae9200000000000000000000000000000000000000000000000000000000815260040161114e9190611e34565b60405180910390fd5b805181602001fd5b63150b7a0260e01b7bffffffffffffffffffffffffffffffffffffffffffffffffffffffff1916817bffffffffffffffffffffffffffffffffffffffffffffffffffffffff1916146111e857836040517f64a0ae920000000000000000000000000000000000000000000000000000000081526004016111df9190611e34565b60405180910390fd5b505b5050505050565b60606111fc82610b63565b50600060066000848152602001908152602001600020805461121d90612322565b80601f016020809104026020016040519081016040528092919081815260200182805461124990612322565b80156112965780601f1061126b57610100808354040283529160200191611296565b820191906000526020600020905b81548152906001019060200180831161127957829003601f168201915b5050505050905060006112a7611726565b905060008151036112bc5781925050506112ff565b6000825111156112f15780826040516020016112d992919061285c565b604051602081830303815290604052925050506112ff565b6112fa8461173d565b925050505b919050565b61131e8282604051806020016040528060008152506117a6565b5050565b806006600084815260200190815260200160002090816113429190612a22565b507ff8e1a15aba9398e019f0b49df1a4fde98ee17ae345cb5f6b5e2c27f5033e8ce7826040516113729190611f4a565b60405180910390a15050565b60007f80ac58cd000000000000000000000000000000000000000000000000000000007bffffffffffffffffffffffffffffffffffffffffffffffffffffffff1916827bffffffffffffffffffffffffffffffffffffffffffffffffffffffff1916148061144957507f5b5e139f000000000000000000000000000000000000000000000000000000007bffffffffffffffffffffffffffffffffffffffffffffffffffffffff1916827bffffffffffffffffffffffffffffffffffffffffffffffffffffffff1916145b806114595750611458826117ca565b5b9050919050565b60006002600083815260200190815260200160002060009054906101000a900473ffffffffffffffffffffffffffffffffffffffff169050919050565b80806114d65750600073ffffffffffffffffffffffffffffffffffffffff168273ffffffffffffffffffffffffffffffffffffffff1614155b1561160a5760006114e684610b63565b9050600073ffffffffffffffffffffffffffffffffffffffff168373ffffffffffffffffffffffffffffffffffffffff161415801561155157508273ffffffffffffffffffffffffffffffffffffffff168173ffffffffffffffffffffffffffffffffffffffff1614155b801561156457506115628184610a6e565b155b156115a657826040517fa9fbf51f00000000000000000000000000000000000000000000000000000000815260040161159d9190611e34565b60405180910390fd5b811561160857838573ffffffffffffffffffffffffffffffffffffffff168273ffffffffffffffffffffffffffffffffffffffff167f8c5be1e5ebec7d5bd14f71427d1e84f3dd0314c0f7b2291e5b200ac8c7c3b92560405160405180910390a45b505b836004600085815260200190815260200160002060006101000a81548173ffffffffffffffffffffffffffffffffffffffff021916908373ffffffffffffffffffffffffffffffffffffffff16021790555050505050565b61166d838383611834565b61172157600073ffffffffffffffffffffffffffffffffffffffff168373ffffffffffffffffffffffffffffffffffffffff16036116e257806040517f7e2732890000000000000000000000000000000000000000000000000000000081526004016116d99190611f4a565b60405180910390fd5b81816040517f177e802f000000000000000000000000000000000000000000000000000000008152600401611718929190612af4565b60405180910390fd5b505050565b606060405180602001604052806000815250905090565b606061174882610b63565b506000611753611726565b90506000815111611773576040518060200160405280600081525061179e565b8061177d846118f5565b60405160200161178e92919061285c565b6040516020818303038152906040525b915050919050565b6117b083836119c3565b6117c56117bb610c28565b6000858585611040565b505050565b60007f01ffc9a7000000000000000000000000000000000000000000000000000000007bffffffffffffffffffffffffffffffffffffffffffffffffffffffff1916827bffffffffffffffffffffffffffffffffffffffffffffffffffffffff1916149050919050565b60008073ffffffffffffffffffffffffffffffffffffffff168373ffffffffffffffffffffffffffffffffffffffff16141580156118ec57508273ffffffffffffffffffffffffffffffffffffffff168473ffffffffffffffffffffffffffffffffffffffff1614806118ad57506118ac8484610a6e565b5b806118eb57508273ffffffffffffffffffffffffffffffffffffffff166118d383610beb565b73ffffffffffffffffffffffffffffffffffffffff16145b5b90509392505050565b60606000600161190484611abc565b01905060008167ffffffffffffffff8111156119235761192261201b565b5b6040519080825280601f01601f1916602001820160405280156119555781602001600182028036833780820191505090505b509050600082602001820190505b6001156119b8578080600190039150507f3031323334353637383961626364656600000000000000000000000000000000600a86061a8153600a85816119ac576119ab612b1d565b5b04945060008503611963575b819350505050919050565b600073ffffffffffffffffffffffffffffffffffffffff168273ffffffffffffffffffffffffffffffffffffffff1603611a355760006040517f64a0ae92000000000000000000000000000000000000000000000000000000008152600401611a2c9190611e34565b60405180910390fd5b6000611a4383836000610c42565b9050600073ffffffffffffffffffffffffffffffffffffffff168173ffffffffffffffffffffffffffffffffffffffff1614611ab75760006040517f73c6ac6e000000000000000000000000000000000000000000000000000000008152600401611aae9190611e34565b60405180910390fd5b505050565b600080600090507a184f03e93ff9f4daa797ed6e38ed64bf6a1f0100000000000000008310611b1a577a184f03e93ff9f4daa797ed6e38ed64bf6a1f0100000000000000008381611b1057611b0f612b1d565b5b0492506040810190505b6d04ee2d6d415b85acef81000000008310611b57576d04ee2d6d415b85acef81000000008381611b4d57611b4c612b1d565b5b0492506020810190505b662386f26fc100008310611b8657662386f26fc100008381611b7c57611b7b612b1d565b5b0492506010810190505b6305f5e1008310611baf576305f5e1008381611ba557611ba4612b1d565b5b0492506008810190505b6127108310611bd4576127108381611bca57611bc9612b1d565b5b0492506004810190505b60648310611bf75760648381611bed57611bec612b1d565b5b0492506002810190505b600a8310611c06576001810190505b80915050919050565b6000604051905090565b600080fd5b600080fd5b60007fffffffff0000000000000000000000000000000000000000000000000000000082169050919050565b611c5881611c23565b8114611c6357600080fd5b50565b600081359050611c7581611c4f565b92915050565b600060208284031215611c9157611c90611c19565b5b6000611c9f84828501611c66565b91505092915050565b60008115159050919050565b611cbd81611ca8565b82525050565b6000602082019050611cd86000830184611cb4565b92915050565b600081519050919050565b600082825260208201905092915050565b60005b83811015611d18578082015181840152602081019050611cfd565b60008484015250505050565b6000601f19601f8301169050919050565b6000611d4082611cde565b611d4a8185611ce9565b9350611d5a818560208601611cfa565b611d6381611d24565b840191505092915050565b60006020820190508181036000830152611d888184611d35565b905092915050565b6000819050919050565b611da381611d90565b8114611dae57600080fd5b50565b600081359050611dc081611d9a565b92915050565b600060208284031215611ddc57611ddb611c19565b5b6000611dea84828501611db1565b91505092915050565b600073ffffffffffffffffffffffffffffffffffffffff82169050919050565b6000611e1e82611df3565b9050919050565b611e2e81611e13565b82525050565b6000602082019050611e496000830184611e25565b92915050565b611e5881611e13565b8114611e6357600080fd5b50565b600081359050611e7581611e4f565b92915050565b60008060408385031215611e9257611e91611c19565b5b6000611ea085828601611e66565b9250506020611eb185828601611db1565b9150509250929050565b600080600060608486031215611ed457611ed3611c19565b5b6000611ee286828701611e66565b9350506020611ef386828701611e66565b9250506040611f0486828701611db1565b9150509250925092565b600060208284031215611f2457611f23611c19565b5b6000611f3284828501611e66565b91505092915050565b611f4481611d90565b82525050565b6000602082019050611f5f6000830184611f3b565b92915050565b60008060408385031215611f7c57611f7b611c19565b5b6000611f8a85828601611db1565b9250506020611f9b85828601611db1565b9150509250929050565b611fae81611ca8565b8114611fb957600080fd5b50565b600081359050611fcb81611fa5565b92915050565b60008060408385031215611fe857611fe7611c19565b5b6000611ff685828601611e66565b925050602061200785828601611fbc565b9150509250929050565b600080fd5b600080fd5b7f4e487b7100000000000000000000000000000000000000000000000000000000600052604160045260246000fd5b61205382611d24565b810181811067ffffffffffffffff821117156120725761207161201b565b5b80604052505050565b6000612085611c0f565b9050612091828261204a565b919050565b600067ffffffffffffffff8211156120b1576120b061201b565b5b6120ba82611d24565b9050602081019050919050565b82818337600083830152505050565b60006120e96120e484612096565b61207b565b90508281526020810184848401111561210557612104612016565b5b6121108482856120c7565b509392505050565b600082601f83011261212d5761212c612011565b5b813561213d8482602086016120d6565b91505092915050565b600080600080608085870312156121605761215f611c19565b5b600061216e87828801611e66565b945050602061217f87828801611e66565b935050604061219087828801611db1565b925050606085013567ffffffffffffffff8111156121b1576121b0611c1e565b5b6121bd87828801612118565b91505092959194509250565b600067ffffffffffffffff8211156121e4576121e361201b565b5b6121ed82611d24565b9050602081019050919050565b600061220d612208846121c9565b61207b565b90508281526020810184848401111561222957612228612016565b5b6122348482856120c7565b509392505050565b600082601f83011261225157612250612011565b5b81356122618482602086016121fa565b91505092915050565b6000602082840312156122805761227f611c19565b5b600082013567ffffffffffffffff81111561229e5761229d611c1e565b5b6122aa8482850161223c565b91505092915050565b600080604083850312156122ca576122c9611c19565b5b60006122d885828601611e66565b92505060206122e985828601611e66565b9150509250929050565b7f4e487b7100000000000000000000000000000000000000000000000000000000600052602260045260246000fd5b6000600282049050600182168061233a57607f821691505b60208210810361234d5761234c6122f3565b5b50919050565b60006060820190506123686000830186611e25565b6123756020830185611f3b565b6123826040830184611e25565b949350505050565b7f4e46544d61726b65743a206e6674206e6f74206c697374656420666f7220736160008201527f6c65000000000000000000000000000000000000000000000000000000000000602082015250565b60006123e6602283611ce9565b91506123f18261238a565b604082019050919050565b60006020820190508181036000830152612415816123d9565b9050919050565b7f4e46544d61726b65743a20796f75277265206e6f74207468652073656c6c6572600082015250565b6000612452602083611ce9565b915061245d8261241c565b602082019050919050565b6000602082019050818103600083015261248181612445565b9050919050565b600060608201905061249d6000830186611e25565b6124aa6020830185611e25565b6124b76040830184611f3b565b949350505050565b50565b60006124cf600083611ce9565b91506124da826124bf565b600082019050919050565b6000819050919050565b6000819050919050565b600061251461250f61250a846124e5565b6124ef565b611d90565b9050919050565b612524816124f9565b82525050565b600060a08201905061253f6000830187611f3b565b61254c6020830186611e25565b6125596040830185611e25565b818103606083015261256a816124c2565b9050612579608083018461251b565b95945050505050565b7f4e46544d61726b65743a207072696365206d757374206265206772656174657260008201527f207468616e203000000000000000000000000000000000000000000000000000602082015250565b60006125de602783611ce9565b91506125e982612582565b604082019050919050565b6000602082019050818103600083015261260d816125d1565b9050919050565b600060a0820190506126296000830187611f3b565b6126366020830186611e25565b6126436040830185611e25565b8181036060830152612654816124c2565b90506126636080830184611f3b565b95945050505050565b7f4e487b7100000000000000000000000000000000000000000000000000000000600052601160045260246000fd5b60006126a682611d90565b91507fffffffffffffffffffffffffffffffffffffffffffffffffffffffffffffffff82036126d8576126d761266c565b5b600182019050919050565b600060a0820190506126f86000830188611f3b565b6127056020830187611e25565b6127126040830186611e25565b81810360608301526127248185611d35565b9050612733608083018461251b565b9695505050505050565b600081519050919050565b600082825260208201905092915050565b60006127648261273d565b61276e8185612748565b935061277e818560208601611cfa565b61278781611d24565b840191505092915050565b60006080820190506127a76000830187611e25565b6127b46020830186611e25565b6127c16040830185611f3b565b81810360608301526127d38184612759565b905095945050505050565b6000815190506127ed81611c4f565b92915050565b60006020828403121561280957612808611c19565b5b6000612817848285016127de565b91505092915050565b600081905092915050565b600061283682611cde565b6128408185612820565b9350612850818560208601611cfa565b80840191505092915050565b6000612868828561282b565b9150612874828461282b565b91508190509392505050565b60008190508160005260206000209050919050565b60006020601f8301049050919050565b600082821b905092915050565b6000600883026128e27fffffffffffffffffffffffffffffffffffffffffffffffffffffffffffffffff826128a5565b6128ec86836128a5565b95508019841693508086168417925050509392505050565b600061291f61291a61291584611d90565b6124ef565b611d90565b9050919050565b6000819050919050565b61293983612904565b61294d61294582612926565b8484546128b2565b825550505050565b600090565b612962612955565b61296d818484612930565b505050565b5b818110156129915761298660008261295a565b600181019050612973565b5050565b601f8211156129d6576129a781612880565b6129b084612895565b810160208510156129bf578190505b6129d36129cb85612895565b830182612972565b50505b505050565b600082821c905092915050565b60006129f9600019846008026129db565b1980831691505092915050565b6000612a1283836129e8565b9150826002028217905092915050565b612a2b82611cde565b67ffffffffffffffff811115612a4457612a4361201b565b5b612a4e8254612322565b612a59828285612995565b600060209050601f831160018114612a8c5760008415612a7a578287015190505b612a848582612a06565b865550612aec565b601f198416612a9a86612880565b60005b82811015612ac257848901518255600182019150602085019450602081019050612a9d565b86831015612adf5784890151612adb601f8916826129e8565b8355505b6001600288020188555050505b505050505050565b6000604082019050612b096000830185611e25565b612b166020830184611f3b565b9392505050565b7f4e487b7100000000000000000000000000000000000000000000000000000000600052601260045260246000fdfea26469706673582212206bc62c1f8ecc6b3b829c6dabf6e2a9afaea875adaa1ad0e5bad2f0190dd962c564736f6c634300081b0033",
  "linkReferences": {},
  "deployedLinkReferences": {}
}